{
  "contractName": "ToDo",
  "abi": [
    {
      "constant": true,
      "inputs": [
        {
          "name": "",
          "type": "address"
        },
        {
          "name": "",
          "type": "uint256"
        }
      ],
      "name": "items",
      "outputs": [
        {
          "name": "",
          "type": "bytes32"
        }
      ],
      "payable": false,
      "stateMutability": "view",
      "type": "function"
    },
    {
      "anonymous": false,
      "inputs": [
        {
          "indexed": true,
          "name": "_address",
          "type": "address"
        },
        {
          "indexed": false,
          "name": "_item",
          "type": "bytes32"
        }
      ],
      "name": "ItemCreated",
      "type": "event"
    },
    {
      "anonymous": false,
      "inputs": [
        {
          "indexed": true,
          "name": "_address",
          "type": "address"
        },
        {
          "indexed": false,
          "name": "_id",
          "type": "uint256"
        }
      ],
      "name": "ItemUpdated",
      "type": "event"
    },
    {
      "anonymous": false,
      "inputs": [
        {
          "indexed": true,
          "name": "_address",
          "type": "address"
        },
        {
          "indexed": false,
          "name": "_id",
          "type": "uint256"
        }
      ],
      "name": "ItemDestroyed",
      "type": "event"
    },
    {
      "constant": false,
      "inputs": [
        {
          "name": "item",
          "type": "bytes32"
        }
      ],
      "name": "create",
      "outputs": [],
      "payable": false,
      "stateMutability": "nonpayable",
      "type": "function"
    },
    {
      "constant": true,
      "inputs": [],
      "name": "read",
      "outputs": [
        {
          "name": "_items",
          "type": "bytes32[]"
        }
      ],
      "payable": false,
      "stateMutability": "view",
      "type": "function"
    },
    {
      "constant": true,
      "inputs": [
        {
          "name": "id",
          "type": "uint256"
        }
      ],
      "name": "get",
      "outputs": [
        {
          "name": "_item",
          "type": "bytes32"
        }
      ],
      "payable": false,
      "stateMutability": "view",
      "type": "function"
    },
    {
      "constant": false,
      "inputs": [
        {
          "name": "id",
          "type": "uint256"
        }
      ],
      "name": "destroy",
      "outputs": [],
      "payable": false,
      "stateMutability": "nonpayable",
      "type": "function"
    }
  ],
  "bytecode": "0x6060604052341561000f57600080fd5b61065e8061001e6000396000f30060606040526004361061006d576000357c0100000000000000000000000000000000000000000000000000000000900463ffffffff16806357de26a4146100725780635c80a435146100dc5780637368a8ce1461013a5780639507d39a146101615780639d118770146101a0575b600080fd5b341561007d57600080fd5b6100856101c3565b6040518080602001828103825283818151815260200191508051906020019060200280838360005b838110156100c85780820151818401526020810190506100ad565b505050509050019250505060405180910390f35b34156100e757600080fd5b61011c600480803573ffffffffffffffffffffffffffffffffffffffff16906020019091908035906020019091905050610261565b60405180826000191660001916815260200191505060405180910390f35b341561014557600080fd5b61015f600480803560001916906020019091905050610292565b005b341561016c57600080fd5b6101826004808035906020019091905050610356565b60405180826000191660001916815260200191505060405180910390f35b34156101ab57600080fd5b6101c160048080359060200190919050506103b6565b005b6101cb6105a1565b6000803373ffffffffffffffffffffffffffffffffffffffff1673ffffffffffffffffffffffffffffffffffffffff16815260200190815260200160002080548060200260200160405190810160405280929190818152602001828054801561025757602002820191906000526020600020905b8154600019168152602001906001019080831161023f575b5050505050905090565b60006020528160005260406000208181548110151561027c57fe5b9060005260206000209001600091509150505481565b6000803373ffffffffffffffffffffffffffffffffffffffff1673ffffffffffffffffffffffffffffffffffffffff16815260200190815260200160002080548060010182816102e291906105b5565b9160005260206000209001600083909190915090600019169055503373ffffffffffffffffffffffffffffffffffffffff167f9a3de7b00f18050a91190447213bbb5c80ace18177398bbbae3e99fdba1817448260405180826000191660001916815260200191505060405180910390a250565b60008060003373ffffffffffffffffffffffffffffffffffffffff1673ffffffffffffffffffffffffffffffffffffffff168152602001908152602001600020828154811015156103a357fe5b9060005260206000209001549050919050565b806000803373ffffffffffffffffffffffffffffffffffffffff1673ffffffffffffffffffffffffffffffffffffffff1681526020019081526020016000208054905011151561040557600080fd5b6000803373ffffffffffffffffffffffffffffffffffffffff1673ffffffffffffffffffffffffffffffffffffffff16815260200190815260200160002060016000803373ffffffffffffffffffffffffffffffffffffffff1673ffffffffffffffffffffffffffffffffffffffff168152602001908152602001600020805490500381548110151561049457fe5b9060005260206000209001546000803373ffffffffffffffffffffffffffffffffffffffff1673ffffffffffffffffffffffffffffffffffffffff168152602001908152602001600020828154811015156104eb57fe5b906000526020600020900181600019169055506000803373ffffffffffffffffffffffffffffffffffffffff1673ffffffffffffffffffffffffffffffffffffffff16815260200190815260200160002080548091906001900361054f91906105e1565b503373ffffffffffffffffffffffffffffffffffffffff167fb6936b6f79f785397136332b3c4366fe56d561877461b393a36a9320dd02edec826040518082815260200191505060405180910390a250565b602060405190810160405280600081525090565b8154818355818115116105dc578183600052602060002091820191016105db919061060d565b5b505050565b81548183558181151161060857818360005260206000209182019101610607919061060d565b5b505050565b61062f91905b8082111561062b576000816000905550600101610613565b5090565b905600a165627a7a723058208229d48b4511f7cd807ed448784ee944ae4bb55edb25f065c46426a6a2bf0e1d0029",
  "source": "pragma solidity 0.4.19;\n\n\ncontract ToDo {\n\n  mapping(address => bytes32[]) public items;\n\n  event ItemCreated(address indexed _address, bytes32 _item);\n  event ItemUpdated(address indexed _address, uint _id);\n  event ItemDestroyed(address indexed _address, uint _id);\n\n  function create(bytes32 item) public {\n    items[msg.sender].push(item);\n    ItemCreated(msg.sender, item);\n  }\n\n  function read() public constant returns (bytes32[] _items) {\n    return items[msg.sender];\n  }\n\n  function get(uint id) public constant returns (bytes32 _item) {\n    return items[msg.sender][id];\n  }\n\n  function destroy(uint id) public {\n    require(items[msg.sender].length > id);\n    items[msg.sender][id] = items[msg.sender][items[msg.sender].length - 1];\n    items[msg.sender].length--;\n    ItemDestroyed(msg.sender, id);\n  }\n\n}\n",
  "sourcePath": "/Users/melnikaite/projects/school_todo/contracts/ToDo.sol",
  "compiler": {
    "name": "solc",
    "version": "0.4.19+commit.c4cbbb05.Emscripten.clang"
  },
  "schemaVersion": "2.0.0",
  "updatedAt": "2018-03-16T15:46:24.189Z"
}